:100000000C9463000C948B000C948B000C94DA0518
:100010000C94DA050C94DA050C948B000C948B008C
:100020000C948B000C948B000C948B000C948B0024
:100030000C948B000C948B000C948B000C948B0014
:100040000C9490050C948B000C945E050C94380570
:100050000C948B000C948B000C948B000C948B00F4
:100060000C948B000C948B000000000024002700EF
:100070002A0000000008000201000003040700003D
:1000800000000000000000000000230026002900FE
:10009000010204081020408001020408102001021F
:1000A0000408102000000000250028002B00040494
:1000B0000404040404040202020202020303030310
:1000C00003035206090A11241FBECFEFD8E0DEBF9A
:1000D000CDBF22E0A0EAB1E001C01D92A63CB2076C
:1000E000E1F711E0A0E0B1E0ECE6F7E102C0059035
:1000F0000D92A03AB107D9F710E0C2E6D0E004C0F3
:100100002197FE010E947E0AC136D107C9F70E94DD
:1001100061070C94A90B0C9400008F929F92AF92F0
:10012000BF92CF92DF92EF92FF920F931F93FC0149
:100130004B01AA24BB24C52ED62EE72EFF24BC2DAE
:10014000A42F9091B402B82C992391F0A92FB0E07C
:10015000A89D9001A99D300DB89D300D1124B32E9E
:100160009C9D60011124BD2D949F80011124A12F1D
:100170004091BA022091B5023091B6028091B70247
:10018000481324C0CF01880F991F8E0F9F1F820F25
:10019000931FE091B702E80FF92FF11DB082E091B3
:1001A000B802E80FF92FF11DB0832091B902820F38
:1001B000911DFC01A0831F910F91FF90EF90DF90A4
:1001C000CF90BF90AF909F908F900895CF01880FF0
:1001D000991F880F991F820F931FFC01E40FF11DD7
:1001E0001082D7CFAF92BF92CF92DF92EF92FF9261
:1001F0000F931F93CF93DF936C017B018B01040F4F
:10020000151FEB015E01AE18BF08C017D10759F0EA
:100210006991D601ED91FC910190F081E02DC6012C
:100220000995892B79F7C501DF91CF911F910F9126
:10023000FF90EF90DF90CF90BF90AF900895FC01BA
:10024000538D448D252F30E0842F90E0821B930B3B
:10025000541710F0CF96089501970895FC01918DE1
:10026000828D981761F0A28DAE0FBF2FB11D5D96E4
:100270008C91928D9F5F9F73928F90E008958FEF86
:100280009FEF0895FC01918D828D981731F0828D3A
:10029000E80FF11D858D90E008958FEF9FEF089591
:1002A000FC01918D228D892F90E0805C9F4F821BF5
:1002B00091098F739927089580EF91E00E94500172
:1002C00021E0892B09F420E0822F089580E090E05E
:1002D000892B29F00E945C0181110C940000089583
:1002E000FC01A48DA80FB92FB11DA35ABF4F2C91AB
:1002F000848D90E001968F739927848FA689B789A2
:100300002C93A089B1898C91837080648C93938D98
:10031000848D981306C00288F389E02D80818F7D3B
:1003200080830895EF92FF920F931F93CF93DF93F3
:10033000EC0181E0888F9B8D8C8D98131AC0E88921
:10034000F989808185FF15C09FB7F894EE89FF89F0
:100350006083E889F98980818370806480839FBF8E
:1003600081E090E0DF91CF911F910F91FF90EF908E
:100370000895F62E0B8D10E00F5F1F4F0F7311279E
:10038000E02E8C8D8E110CC00FB607FCFACFE889D9
:10039000F989808185FFF5CFCE010E947001F1CFF0
:1003A000EB8DEC0FFD2FF11DE35AFF4FF0829FB74D
:1003B000F8940B8FEA89FB8980818062CFCFCF933D
:1003C000DF93EC01888D8823B9F0AA89BB89E8897D
:1003D000F9898C9185FD03C0808186FD0DC00FB623
:1003E00007FCF7CF8C9185FFF2CF808185FFEDCFA1
:1003F000CE010E947001E9CFDF91CF91089590E086
:10040000FC01EE58FF4F2491FC01E057FF4F34915F
:10041000FC01E255FF4FE491EE23C9F0222339F0AD
:10042000233001F1A8F4213019F1223029F1F0E054
:10043000EE0FFF1FEC55FF4FA591B4918FB7F894C5
:10044000EC91611126C030953E233C938FBF0895F7
:100450002730A9F02830C9F0243049F78091800076
:100460008F7D03C0809180008F7780938000DFCFE5
:1004700084B58F7784BDDBCF84B58F7DFBCF809132
:10048000B0008F778093B000D2CF8091B0008F7D85
:10049000F9CF3E2BDACFCF93DF9390E0FC01E0570A
:1004A000FF4F249182559F4FFC0184918823D1F006
:1004B00090E0880F991FFC01E859FF4FA591B49176
:1004C000FC01EC55FF4FC591D49161110EC09FB74F
:1004D000F8948C91E22FE0958E238C932881E2236F
:1004E000E8839FBFDF91CF9108958FB7F894EC9187
:1004F000E22BEC938FBFF6CF3FB7F8948091E101E8
:100500009091E201A091E301B091E40126B5A89B8E
:1005100005C02F3F19F00196A11DB11D3FBFBA2F95
:10052000A92F982F8827BC01CD01620F711D811D55
:10053000911D42E0660F771F881F991F4A95D1F7DA
:100540000895CF92DF92EF92FF920F931F93CF9374
:10055000DF93CDB7DEB729970FB6F894DEBF0FBE95
:10056000CDBFC090BB02D090BC02E090BD02F09025
:10057000BE020E947C026C157D058E059F0550F41D
:100580000E947C026093BB027093BC028093BD0208
:100590009093BE020E947C020091BB021091BC02AB
:1005A0002091BD023091BE02601B710B820B930B38
:1005B0006C32714081059105A0F2F8948091B002EF
:1005C0009091B1029A838983E091B502F091B602CD
:1005D000DF011196808189879091AC02E091BF0282
:1005E000F091C0028091C102992309F449C0908121
:1005F000982B98879081809589238F838F818C8316
:1006000088E08B8358856F8149853B812C81898166
:100610009A81508347FD252F3A952083262F39F064
:10062000441F00C000006083000000C0F2CF38E02B
:100630004D9160830000019761F7F093C002E09351
:10064000BF0249873B832C839A83898378940E94D5
:100650007C026093BB027093BC028093BD029093B6
:10066000BE0229960FB6F894DEBF0FBECDBFDF9154
:10067000CF911F910F91FF90EF90DF90CF90089551
:100680009081982B98879081809589238F838F8183
:100690008E8388E08D8358856F8149853D812E81C9
:1006A00089819A81508347FD252F00C000C0208397
:1006B00000C000C000C000C000C060830000262F42
:1006C0003A9541F0441F000000C000C000C000C0C7
:1006D00000C0E8CF38E04D9100C0608300C00197B2
:1006E00009F7F093C002E093BF0249873D832E8350
:1006F000ABCF8F929F92AF92BF92CF92DF92EF9249
:10070000FF924B015C010E947C026B017C010E9404
:100710007C026C197D098E099F09683E7340810532
:100720009105A8F321E0821A9108A108B10888EE8A
:10073000C80E83E0D81EE11CF11C81149104A104B1
:10074000B10429F7FF90EF90DF90CF90BF90AF906A
:100750009F908F9008952091E7013091E80128172C
:10076000390771F49091E5018091E601981741F005
:10077000E091E501F0E0E056FE4F808190E00895C1
:100780008FEF9FEF08950895EF92FF920F931F93BD
:10079000CF93DF93DC015C96ED90FC905D97E114C4
:1007A000F10479F481E090E013969C938E93129774
:1007B00090E080E0DF91CF911F910F91FF90EF903B
:1007C00008955196ED91FC91529750968C915097C7
:1007D000982F90950FB75E962C915E97122F1270FE
:1007E00021FD6095F8942081112319F1282B208395
:1007F000E7012197F1F728E0462F50E0308160FFB4
:100800001AC0382B3083E7012197F1F7BA017595AB
:100810006795215089F7112381F080818923808396
:100820000FBF5C968D919C910197F1F781E090E06C
:10083000C1CF2923DCCF3923E5CF9081892BEFCF9E
:100840002091E7013091E8012817390771F4809170
:10085000E6012091E50190E0805C9F4F821B9109A9
:1008600060E470E00E94340A089590E080E008950A
:100870002091E7013091E80128173907B9F49091E8
:10088000E5018091E601981789F0E091E501F0E03B
:10089000E056FE4F80812091E50130E02F5F3F4F11
:1008A0002F7333272093E50190E008958FEF9FEF9A
:1008B000089590E080E00895CF92DF92EF92FF924A
:1008C000CF93DF936B01770FEE08FF08FE2CED2C22
:1008D000DC2CCC24052E000C660B770BC42AD52A01
:1008E000E62AF72A092E000CAA0BBB0BDC0199277C
:1008F0008827C82AD92AEA2AFB2AD0E0C0E08091BA
:10090000AE029091AF02C817D90728F4B701A6012B
:10091000CE010E948D002196CB30D10581F78091C8
:10092000B5029091B602892B41F0DF91CF91FF90F3
:10093000EF90DF90CF900C94A102DF91CF91FF90C8
:10094000EF90DF90CF900895FC0101900020E9F72F
:100950003197AF01481B590BBC0180EF91E00C941B
:10096000F2008F929F92AF92BF920F931F93CF93FB
:10097000DF93CDB7DEB7A1970FB6F894DEBF0FBEF9
:10098000CDBF19A2423008F44AE08E010F5D1F4F1F
:10099000842E912CB12CA12CA50194010E94480A0F
:1009A000E62FB901CA01EA30F4F4E05DD801EE9314
:1009B0008D01232B242B252B79F790E080E01097D5
:1009C00019F0CD010E94A404A1960FB6F894DEBFE1
:1009D0000FBECDBFDF91CF911F910F91BF90AF9010
:1009E0009F908F900895E95CE1CFCF92DF92EF92D4
:1009F000FF92CF93DF936B017C016DE280EF91E07A
:100A00000E949201EC0166277727CB016C197D09C2
:100A10008E099F094AE00E94B1048C0F9D1FDF914F
:100A2000CF91FF90EF90DF90CF900895BC01990F88
:100A3000880B990B97FD0C94F5044AE00C94B104D3
:100A4000CF93DF93BC01990F880B990B97FF0CC0D4
:100A50000E94F504EC018CE391E00E94A4048C0F49
:100A60009D1FDF91CF9108954AE00E94B104F2CF1B
:100A70001F920F920FB60F9211242F933F934F9313
:100A80005F936F937F938F939F93AF93BF93EF93F6
:100A9000FF9380EF91E00E947001FF91EF91BF9171
:100AA000AF919F918F917F916F915F914F913F9106
:100AB0002F910F900FBE0F901F9018951F920F92BD
:100AC0000FB60F9211242F938F939F93EF93FF9361
:100AD000E0910002F09101028081E0910602F09124
:100AE000070282FD1BC09081809109028F5F8F7386
:100AF00020910A02821741F0E0910902F0E0E051F2
:100B0000FE4F958F80930902FF91EF919F918F91F6
:100B10002F910F900FBE0F901F9018958081F4CFEA
:100B20001F920F920FB60F9211242F933F938F9322
:100B30009F93AF93BF938091E9019091EA01A091B7
:100B4000EB01B091EC013091E00123E0230F2D3750
:100B500058F50196A11DB11D2093E0018093E90194
:100B60009093EA01A093EB01B093EC018091E10135
:100B70009091E201A091E301B091E4010196A11DE1
:100B8000B11D8093E1019093E201A093E301B09342
:100B9000E401BF91AF919F918F913F912F910F9061
:100BA0000FBE0F901F90189526E8230F0296A11DE7
:100BB000B11DD2CF1F920F920FB60F9211242F9317
:100BC0003F934F935F936F937F938F939F93AF93D5
:100BD000BF93EF93FF93E091E701F091E801309725
:100BE00049F0A685B7858585968D91FF14C09C91A7
:100BF0008923A1F4FF91EF91BF91AF919F918F91C4
:100C00007F916F915F914F913F912F910F900FBE08
:100C10000F901F9018959C91892361F7A389B4893F
:100C20009C918589809589238C93868997890197E2
:100C3000F1F7608D718DA685B785558538E020E088
:100C4000CB010197F1F7822F90E095958795282F9A
:100C50004C91452309F02068315091F7868D81FD34
:100C600020958091E60190E001968F73992730914D
:100C7000E501381799F0A091E601B0E0A056BE4F0B
:100C80002C938093E601828D938D0197F1F7A389D0
:100C9000B4898C919589892B8C93ACCF868D81609A
:100CA000868FF1CF1092F3011092F20188EE93E05B
:100CB000A0E0B0E08093F4019093F501A093F601D9
:100CC000B093F7018CE191E09093F1018093F001F2
:100CD00085EC90E09093FD018093FC0184EC90E022
:100CE0009093FF018093FE0180EC90E090930102CD
:100CF0008093000281EC90E09093030280930202C3
:100D000082EC90E0909305028093040286EC90E0E0
:100D100090930702809306021092090210920A0231
:100D200010920B0210920C021092AD021092B402BB
:100D30001092BB021092BC021092BD021092BE0231
:100D400081E08093BA028093B7021092B80292E0D9
:100D50009093B9028093AC0281E290E09093B1024B
:100D60008093B0020E94840A9093B6028093B502E9
:100D7000009709F49DC021E2FC0111922A95E9F740
:100D80008BE090E09093AF028093AE0286E090E01B
:100D90009093B3028093B2028091AD02882341F018
:100DA00061E086E00E944B0260E086E00E94FF0165
:100DB000E4EBF0E0E491F0E0EE0FFF1FEC55FF4FA5
:100DC000859194919093C0028093BF02E6E9F0E090
:100DD000E491E093C1021092900210928F0288EE8B
:100DE00093E0A0E0B0E08093910290939202A093F0
:100DF0009302B09394028EE291E090938E028093DE
:100E00008D021092A4021092A3021092A6021092D8
:100E1000A5021092A8021092A7021092AA021092A4
:100E2000A9026091AB026E7F6D7F6093AB02669505
:100E3000617081E0682783E00E94FF0161E083E048
:100E40000E944B02E3E9F0E0E491E0939D02E1EBC4
:100E5000F0E0E491F0E0EE0FFF1FEC55FF4F8591BD
:100E6000949190939F0280939E0260E082E00E94A2
:100E70004B028091AB0281FD04C061E082E00E94E0
:100E8000FF0182E080939902E2E9F0E0E491E093CF
:100E90009A02E0EBF0E0E491F0E0EE0FFF1FEA577A
:100EA000FF4F8591949190939C0280939B020895AB
:100EB0001092B1021092B0021092AF021092AE02E4
:100EC00065CFCF93DF93CDB7DEB762970FB6F894B7
:100ED000DEBF0FBECDBF789484B5826084BD84B57B
:100EE000816084BD85B5826085BD85B5816085BD25
:100EF00080916E00816080936E00109281008091DD
:100F00008100826080938100809181008160809364
:100F10008100809180008160809380008091B10089
:100F200084608093B1008091B00081608093B000B4
:100F300080917A00846080937A0080917A00826048
:100F400080937A0080917A00816080937A0080910A
:100F50007A00806880937A001092C100E0910002CC
:100F6000F091010282E08083E091FC01F091FD01AB
:100F70001082E091FE01F091FF018FEC80831092CE
:100F80000802E0910402F091050286E08083E0917E
:100F90000202F0910302808180618083E09102026D
:100FA000F0910302808188608083E0910202F091D9
:100FB0000302808180688083E0910202F091030245
:100FC00080818F7D80838FE391E00E94A4048CE375
:100FD00091E00E94A4048091B2029091B30297FD27
:100FE00008C061E00E944B0260E08091B2020E9462
:100FF000FF0181E08093AD02812C912C38ECA32E6F
:10100000B12C44E6442E512C612C712CF12CE12C96
:10101000B301A201482959296A297B295A60809184
:10102000AE029091AF02E816F90618F4C7010E94CB
:101030008D008091B5029091B602892B11F00E942B
:10104000A10264E670E080E090E00E9479032FEF57
:10105000E21AF20A35E0430E511C611C711C8AE051
:10106000A81AB108EBE0EE16F10491F61092A8026E
:101070001092A7021092A6021092A5021092A4024A
:101080001092A3028DE991E09093AA028093A902A5
:1010900090919902963108F047C02DEB30E03093E3
:1010A000A4022093A3022BE931E03093A6022093FF
:1010B000A5022CE231E03093A8022093A7022091F0
:1010C000680084E0983048F031E09E3008F430E069
:1010D00081E001C0880F3A95EAF7822B809368007F
:1010E0002DE630E0983050F02BE630E09E3030F0C6
:1010F0002CE630E0963110F030E020E03093A10291
:101100002093A002292F30E0983008F086C081E0BB
:1011100001C0880F9A95EAF78093A2028091A902F4
:101120009091AA020197F1F78091A7029091A802ED
:10113000892B49F1E091E701F091E80122E0ED38D7
:10114000F20709F1309739F0A389B4899C91858918
:10115000809589238C938091AB028E7F8093AB0224
:101160001092E6011092E5018DE892E09093E8017B
:101170008093E701E091A002F091A102808190911B
:10118000A202892B808389E0E6E0F1E0DE0111967E
:1011900001900D928A95E1F749E050E0BE016F5F42
:1011A0007F4F8DE892E00E94F2006E013AE0C30E9C
:1011B000D11C99E0592E3E0183E1680E711C5E013D
:1011C000E2E1AE0EB11C20E0822E20E0922E4424FB
:1011D000439489E0EFE0F1E0DE01119601900D9279
:1011E0008A95E1F749E050E0BE016F5F7F4F8DE8DF
:1011F00092E00E94F200F601252D11922A95E9F75E
:101200008DE892E00E942004892BA1F468EE73E03F
:1012100080E090E00E947903F3CF9E3040F42850A4
:10122000310981E001C0880F2A95EAF775CF2E5069
:101230003109F7CF76012FB7F8948091E9019091A9
:10124000EA01A091EB01B091EC012FBF80939502D0
:1012500090939602A0939702B09398028DE892E043
:101260000E94380497FFCDC02FB7F8948091E90110
:101270009091EA01A091EB01B091EC012FBF409158
:101280009502509196026091970270919802841B8A
:10129000950BA60BB70B4091910250919202609171
:1012A00093027091940284179507A607B707B0F2CE
:1012B000FE013B9680E09191890FAE16BF06D9F7EB
:1012C00081959A89981709F460C08BE591E00E9496
:1012D000A4048CE391E00E94A404F12CE12C809101
:1012E000EF0181115FC08091ED019091EE010196B7
:1012F0009093EE018093ED0188E791E00E94A404B1
:10130000C8010E9416058EE791E00E94A404C7015F
:101310000E9416058DE891E00E94A4048091ED01E1
:101320009091EE010E9420058091ED019091EE01D7
:101330000632F2E01F0719F08531910524F48D3251
:1013400021E0920714F04092EF0146E650E06DE490
:1013500070E080FF04C050E040E070E060E090E0AA
:1013600080E00E945C0468EE73E080E090E00E9400
:1013700079038114910409F42CCF0E945C01882325
:1013800009F427CF0E94000024CF0C8510E0102F15
:1013900000278D85080F111D8E85E82FE852FF0B61
:1013A0007F019DCF88E791E00E94A404C8010E94BC
:1013B00016058EE791E00E94A404C7010E94200553
:1013C00050E040E066E670E090E080E00C3B32E008
:1013D000130784F066E670E0083E83E0180744F0E7
:1013E0006DE370E00431E5E01E0714F064E170E0A5
:1013F00086E690E00E945C0468E873E180E090E09B
:10140000B6CFF70181937F016E167F0609F013CFE7
:101410004FCF8EE291E090938E0280938D02809167
:10142000E7019091E8018D58924071F4E091A0029B
:10143000F091A10290818091A202809589238083FE
:101440001092E8011092E7018091B5029091B602E6
:101450000E94200B8091B2029091B30297FD03C0CD
:1014600060E00C944B02089597FB072E16F400944D
:1014700007D077FD09D00E946A0A07FC05D03EF428
:10148000909581959F4F0895709561957F4F089530
:10149000A1E21A2EAA1BBB1BFD010DC0AA1FBB1F78
:1014A000EE1FFF1FA217B307E407F50720F0A21BEA
:1014B000B30BE40BF50B661F771F881F991F1A9457
:1014C00069F760957095809590959B01AC01BD0181
:1014D000CF010895AA1BBB1B51E107C0AA1FBB1F68
:1014E000A617B70710F0A61BB70B881F991F5A95B0
:1014F000A9F780959095BC01CD010895EE0FFF1FCF
:101500000590F491E02D09940F931F93CF93DF93EF
:101510008230910510F482E090E0E091C402F091F5
:10152000C50230E020E0B0E0A0E0309799F421154A
:10153000310509F44AC0281B390B24303105D8F590
:101540008A819B816115710589F1FB0193838283F7
:10155000FE0111C040815181028113814817590752
:10156000E0F04817590799F4109761F012960C9320
:10157000129713961C933296CF01DF91CF911F9152
:101580000F9108950093C4021093C502F4CF211562
:10159000310551F04217530738F0A901DB019A01D8
:1015A000BD01DF01F801C1CFEF01F9CF9093C50272
:1015B0008093C402CDCFFE01E20FF31F819391937C
:1015C0002250310939832883D7CF2091C20230912C
:1015D000C302232B41F42091020130910301309387
:1015E000C3022093C2022091000130910101211514
:1015F000310541F42DB73EB74091040150910501EA
:10160000241B350BE091C202F091C302E217F307ED
:10161000A0F42E1B3F0B2817390778F0AC014E5F62
:101620005F4F2417350748F04E0F5F1F5093C302DA
:101630004093C202819391939FCFF0E0E0E09CCF72
:10164000CF93DF930097E9F0FC0132971382128267
:10165000A091C402B091C502ED0130E020E01097E6
:10166000A1F420813181820F931F2091C202309119
:10167000C3022817390709F061C0F093C302E09351
:10168000C202DF91CF910895EA01CE17DF07E8F596
:101690004A815B819E0141155105B1F7E901FB8348
:1016A000EA8349915991C40FD51FEC17FD0761F4E6
:1016B000808191810296840F951FE9019983888327
:1016C000828193819B838A83F0E0E0E012968D9182
:1016D0009C9113970097B9F52D913C911197CD01ED
:1016E0000296820F931F2091C2023091C3022817E5
:1016F000390739F6309751F51092C5021092C4029D
:10170000B093C302A093C202BCCFD383C2834081F3
:101710005181840F951FC817D90761F44E5F5F4F41
:1017200088819981480F591F518340838A819B8109
:10173000938382832115310509F0B0CFF093C50260
:10174000E093C4029ECFFD01DC01C0CF1382128260
:10175000D7CF10E0C2E6D0E004C0FE010E947E0AAE
:0C1760002196C336D107C9F7F894FFCFDB
:10176C000000C6028000FF0179A000000000E5FF28
:10177C000186000000000079000000009201F200D8
:10178C001F01DF0150012E01420100000000C403C3
:10179C00F2005904C30320043804AB030D0A0043C0
:1017AC004F322D55666F206279204D2E20416C6290
:1017BC0072656368742032303231004665686C653E
:1017CC007220696E2064657220EFBFBD6265727411
:1017DC00726167756E67210050504D3A200020549D
:1017EC00656D70657261747572653A200020436F87
:1017FC00756E7465722D507265486561743A20007F
:00000001FF
